:100000000C94F0000C9411010C9411010C9411014A
:100010000C9411010C9411010C9411010C94110118
:100020000C9411010C9411010C9411010C94110108
:100030000C9411010C9411010C9411010C941101F8
:100040000C9411010C9411010C9411010C941101E8
:100050000C9411010C9411010C9411010C941101D8
:100060000C9411010C9411010C9411010C941101C8
:100070000C9411010C9411010C9411010C941101B8
:100080000C9411010C9411010C9411010C941101A8
:100090000C9411010C9411010C9411010C94110198
:1000A0000C9411010C9411010C9411010C94110188
:1000B0000C9411010C9411010C9411010C94110178
:1000C0000C9411010C9411010C9411010C94110168
:1000D0000C9411010C9411010C9411010C94110158
:1000E0000C9411010C9411010C9411010C94110148
:1000F0000C9411010C9411010C9411010C94110138
:100100000C9411010C9411010C9411010C94110127
:100110000C9411010C9411010C9411010C94110117
:100120000C9411010C9411010C9411010C94110107
:100130000C9411010C9411010C9411010C941101F7
:100140000C9411010C9411010C9411010C941101E7
:100150000C9411010C9411010C9411010C941101D7
:100160000C9411010C9411010C9411010C941101C7
:100170000C9411010C9411010C9411010C941101B7
:100180000C9411010C9411010C9411010C941101A7
:100190000C9411010C9411010C9411010C94110197
:1001A0000C9411010C9411010C9411010C94110187
:1001B0000C9411010C9411010C9411010C94110177
:1001C0000C9411010C9411010C9440010C94170231
:1001D0000C942B020C9413010C9427010C9419011C
:1001E00011241FBECFEFCDBFDFE3DEBF00E00CBFA9
:1001F00012E2A0E0B0E2E2ECFDE000E00BBF02C0E2
:1002000007900D92AC31B107D9F723E2ACE1B2E22D
:1002100001C01D92A23DB207E1F70E94BE060C94F8
:10022000DF060C940000AC0184E70E94D60180E058
:100230000895FC01603149F490E1ACE2B2E2019032
:100240000D929A95E1F780E0089581E00895CF93AB
:10025000603199F4C1E0C09305064CE152E26CE2D2
:1002600072E20E94D505C09306064CE152E260E1BD
:1002700082E70E94D60180E001C081E0CF9108951D
:1002800081E00895FC0180E09DE4615070F02191CF
:10029000822728E030E087FF03C0880F892701C04C
:1002A000880F21503109B9F7F0CF0895DB01FA0129
:1002B0009F01241B350B28173907D4F52C91119673
:1002C0003C91119760ED630F6A3010F460830FC0AA
:1002D0006FEB630F663010F4375308C06FE9630F9C
:1002E000663018F081E090E008953755308330EDA6
:1002F000320F3A3018F42295207F14C03FEB320FB2
:10030000363020F430E02753310907C03FE9320F7F
:10031000363040F730E02755310964E0220F331FB3
:100320006A95E1F73081232B208331961296C0CF56
:1003300080E090E00895A091FC22B091FD22A032CF
:10034000B105CCF460347105B0F496E09A9FF001E9
:100350009B9FF00D1124E45CFD4D808361837283CB
:100360004383548325831196A093FC22B093FD22EE
:1003700080E090E0089581E090E0089520E00C9402
:100380009B0140E451E060E070E086E70E94BE011E
:100390004BE252E060E070E087E70E94BE0147E177
:1003A00052E060E070E089E70C94BE01CF92DF92EA
:1003B000EF92FF920F931F93CF93DF934115510557
:1003C00069F18A01C62F0E9470037801D0E0C7014D
:1003D000801B910B8C179D07B4F46701D701ED9139
:1003E0007D01E295EF70F0E0E55FFD4D80810E94B8
:1003F0007003D601EC91EF70F0E0E55FFD4D808178
:100400000E947003E4CF8AE0DF91CF911F910F919A
:10041000FF90EF90DF90CF900C947003DF91CF911D
:100420001F910F91FF90EF90DF90CF900895CF93A1
:10043000DF931F92CDB7DEB78091FC228983AE0196
:100440004F5F5F4F61E082E70E94D60180E00F902E
:10045000DF91CF910895CF93DF93CDB7DEB7C0562C
:10046000D109CDBFDEBF6091FC227091FD22AB01AE
:10047000552720E036E0822F90E084179507ECF4B2
:10048000FC01EE0FFF1FE80FF91FA1E0B0E0AC0F79
:10049000BD1FEA0FFB1F389FD001399FB00D1124FB
:1004A000A45CBD4D8C91808311968C9111978183B2
:1004B00015968C9182832F5FDECF862F880F680F71
:1004C000AE014F5F5F4F82E70E94D60180E0C05AC5
:1004D000DF4FCDBFDEBFDF91CF910895AF92BF92C6
:1004E000CF92DF92EF92FF920F931F93CF93DF9300
:1004F000CDB7DEB7C15CD109CDBFDEBF0E946903B5
:100500004091FC225091FD222CE332E200E010E009
:1005100004171507ECF42A5F3F4FF90136979081D5
:10052000891313C026E0209FC001219F900D112444
:100530009C01245C3D4D6901D90115968C91FE0109
:1005400031967F0180FF2AC008C00F5F1F4FE0CFA8
:100550000417150709F476C0E5CFCF57DF4F18828F
:10056000C158D0400E94690389830E9469038A832D
:10057000AE014F575F4FB70181E090E00E945601F6
:10058000892B09F05FC0CF57DF4F8881C158D04019
:1005900090E0D60111968D939C931297670126E007
:1005A000209FC001219F900D1124FC01E35CFD4DB3
:1005B0005F01F50180819181880F991F96012E19A5
:1005C0003F092817390750F40E9469038A30D1F196
:1005D0008D30C1F1D6018D936D01EBCF0E9469037F
:1005E0008A3011F08D3071F526E0209FC001219FE7
:1005F000900D11248C01045C1D4DD8011196DC90E6
:100600001197AE014F575F4FB7018D2D12969C91F8
:100610000E945601892BB1F4D8011396ED91FC91FB
:1006200014976D2DCE018F579F4F1995CF53DF4FE4
:100630008883C15CD040AE014F535F4F61E08AE7D1
:100640000E94D601CF53DF4FCDBFDEBFDF91CF91E8
:100650001F910F91FF90EF90DF90CF90BF90AF90E0
:10066000089508950895E0E4F6E088E0818384E049
:100670008283E0EAF8E083E0858381E18683178264
:100680008481806184838481886084830895CF938A
:10069000DF931F921F92CDB7DEB769837A8320E084
:1006A00030E049815A812417350769F04091A1084B
:1006B00047FF06C02091A008FC01208381E004C010
:1006C0002F5F3F4FEECF80E00F900F90DF91CF91E3
:1006D00008958091A10887FFFCCF8091A00808951C
:1006E0009091A10895FFFCCF8093A0080895FC018C
:1006F0006083718342831486138616861586089557
:10070000FC0162830895FC01958526859F5F9370A7
:1007100081E0921301C080E008951F93CF93DF938F
:10072000EC01162F0E948303882379F09D85FE013A
:10073000E90FF11D17839F5F93709D87E881F98111
:1007400093819C7F2A81922B9383DF91CF911F917C
:100750000895FC012385948581E0291301C080E080
:100760000895FC018485DF01A80FB11D13968C91BB
:1007700094859F5F937094870895FC0183858F5FB4
:1007800083702485A081B1819C91821749F02385D3
:10079000DF01A20FB11D13969C93838781E008951A
:1007A00080E00895CF93DF93FC0196858585A08135
:1007B000B181981307C013968C9113978C7F139671
:1007C0008C930AC08685EF01C80FD11D8F818C9351
:1007D00086858F5F83708687DF91CF910895FC01B6
:1007E000848170FF02C0816001C08E7F848360833A
:1007F0000895FC01848180FF04C0808190E09160B5
:100800000895808190E00895109252001092550052
:10081000809150008860809350008091510083FF48
:10082000FCCF88ED84BF83E08093400088E0809314
:10083000500008958F929F92AF92BF92FF920F93B4
:100840001F93CF93DF9300D01F92CDB7DEB7609197
:10085000FE227091FF22E0E1F3E29B01205F3F4F17
:10086000CF01DB014C91DC014C93DB0111964C91E3
:10087000DC0111964C93DB0112964C91DC0112962F
:100880004C93DB0113964C91DC0113964C936C5FF7
:100890007F4F04966217730721F794E0892E912CFD
:1008A000A12CB12CBE016B5F7F4FAF01445F5F4F46
:1008B0009E012F5F3F4FDA011D91AD01D9011D93BC
:1008C0009D016A177B07B9F7950184010370112711
:1008D00022273327012B022B032B51F529814C8131
:1008E0000A8110E0055F1E4DD801FC900B8110E0DD
:1008F000055F1E4DD8013C913A8350E0455F5E4D47
:10090000DA013C913B8330E0255F3E4DD9012C91CB
:100910002C839501840182E03695279517950795DC
:100920008A95D1F70050104ED8012C912F2529839C
:10093000308129812327208B31812A812327218B14
:1009400032812B812327228B33812C812327238BF8
:10095000BFEF8B1A9B0AAB0ABB0A34968CE288164F
:100960009104A104B10409F0A0CF2496CDBFDEBF4D
:10097000DF91CF911F910F91FF90BF90AF909F900B
:100980008F900895CF93DF936091C0237091C1231E
:1009900090E1899FE001112420E030E0F901EC0FA3
:1009A000FD1FE05FFC4DDB01A20FB31F90E0419102
:1009B0008C9148274D939F5F9430C9F72C5F3F4F30
:1009C0002031310559F7DF91CF9108952091C0234F
:1009D0003091C12394E0D90180E0EC91F0E0E55F33
:1009E000FE4D40814C938F5F14968430B1F7915047
:1009F0002F5F3F4F9111EFCF0895E091C023F09109
:100A0000C123818195819183918595839585918776
:100A10008587828192859283828786819685968357
:100A2000868783819785938393859787978193871B
:100A300087830895982F991F9927991F2BE1929FDB
:100A4000902D1124880F892708952091C02330917B
:100A5000C12394E0D90180E0EC91F0E0E55FFF4D27
:100A600040814C938F5F14968430B1F791502F5F83
:100A70003F4F9111EFCF0895E091C023F091C12332
:100A800085859185958795819187918195838183CE
:100A900082819285928382878681968596838687D6
:100AA000838197819383938597839785938787879E
:100AB00008959F92AF92BF92CF92DF92EF92FF92F2
:100AC0000F931F93CF93DF9380E00E94C204BB2457
:100AD000B3940E94E6040E94FD04C091C023D0910B
:100AE000C1237E0180E1E80EF11CA88009818A2DD6
:100AF00080271A81CB80912E9C24D82ED9240E9445
:100B00001A058A258D258883802F81270E941A0542
:100B10008027082F0D250983892D0E941A0581271A
:100B2000182F1D251A838A2D8C250E941A058C25C5
:100B3000D826DB822496CE15DF05B9F68B2D0E94D0
:100B4000C204B3948AE0B812C4CF0E94E6040E94A3
:100B5000FD048AE0DF91CF911F910F91FF90EF90FC
:100B6000DF90CF90BF90AF909F900C94C2049B01F8
:100B7000205F3F4FFB014191BF01FC014193CF0139
:100B800062177307B9F708958093FE229093FF22AE
:100B90000C941A048093C0239093C123BC0180E07D
:100BA00093E20E94B7050C9459050F931F93CF93BE
:100BB000DF938B01EA01BC01CA010E94B705C09313
:100BC000C023D093C1230093FE221093FF220E94E2
:100BD0001A04DF91CF911F910F910C9459052F9218
:100BE0003F924F925F926F927F928F929F92AF92BD
:100BF000BF92CF92DF92EF92FF920F931F93CF930A
:100C0000DF9300D000D0CDB7DEB76B837C835A0171
:100C1000BC01CA010E94B705A092C023B092C123B3
:100C20008B819C818093FE229093FF220E941A0464
:100C30008AE00E94C20489E0382EF5017096EB83A9
:100C4000FC830E943C050E942505832D0E94C2045E
:100C50008501F801F081F983F801F181FA83F80147
:100C6000D280F38089810E941A05282E0E941A05DD
:100C7000E82E0E941A05882E8A810E941A058D830B
:100C80000E941A05582E0E941A05982E8D2D0E943A
:100C90001A05482E0E941A058E830E941A05C82E36
:100CA0008F2D0E941A05682E0E941A05782E0E9428
:100CB0001A05922D9E259825FD819F2799252E8125
:100CC00092279C259827EA819E279D259F25F8013C
:100CD00090839D8198259525992594259C25972578
:100CE0009827F9819F279D259F25F8019183998158
:100CF000FA819F27E824E9244E2424252C25262543
:100D00002827F226F926F801F282822485249824E5
:100D1000C924C6247C248725D826D926D3820C5FF3
:100D20001F4F8B819C818017910709F092CF3A94D5
:100D3000311087CF0E943C050E94250580E0269651
:100D4000CDBFDEBFDF91CF911F910F91FF90EF904C
:100D5000DF90CF90BF90AF909F908F907F906F90DB
:100D60005F904F903F902F900C94C20408950C9484
:100D7000C4050C94CA050895089508950E940404BA
:100D80000E94330381E0809301060E94C10149E182
:100D900051E060E170E08BE60E94BE0147E251E065
:100DA00060E170E080E70E94BE0143E151E060E055
:100DB00070E084E70E94BE010E946E02FDCFF894AD
:020DC000FFCF63
:100DC2008D01020408102040801B3652096AD5307A
:100DD20036A538BF40A39E81F3D7FB7CE339829BC3
:100DE2002FFF87348E4344C4DEE9CB547B9432A672
:100DF200C2233DEE4C950B42FAC34E082EA1662843
:100E0200D924B2765BA2496D8BD12572F8F664863D
:100E1200689816D4A45CCC5D65B6926C704850FD9F
:100E2200EDB9DA5E154657A78D9D8490D8AB008C3C
:100E3200BCD30AF7E45805B8B34506D02C1E8FCAB6
:100E42003F0F02C1AFBD0301138A6B3A9111414FAB
:100E520067DCEA97F2CFCEF0B4E67396AC7422E781
:100E6200AD3585E2F937E81C75DF6E47F11A711D61
:100E720029C5896FB7620EAA18BE1BFC563E4BC627
:100E8200D279209ADBC0FE78CD5AF41FDDA83388D0
:100E920007C731B11210592780EC5F60517FA91941
:100EA200B54A0D2DE57A9F93C99CEFA0E03B4DAE6C
:100EB2002AF5B0C8EBBB3C83539961172B047EBA69
:100EC20077D626E169146355210C7D637C777BF22A
:100ED2006B6FC53001672BFED7AB76CA82C97DFA2C
:100EE2005947F0ADD4A2AF9CA472C0B7FD93263689
:100EF2003FF7CC34A5E5F171D8311504C723C318E7
:100F020096059A071280E2EB27B27509832C1A1B09
:100F12006E5AA0523BD6B329E32F8453D100ED2061
:100F2200FCB15B6ACBBE394A4C58CFD0EFAAFB4327
:100F32004D338545F9027F503C9FA851A3408F92C3
:100F42009D38F5BCB6DA2110FFF3D2CD0C13EC5F5D
:100F5200974417C4A77E3D645D197360814FDC22FC
:100F62002A908846EEB814DE5E0BDBE0323A0A497C
:100F720006245CC2D3AC629195E479E7C8376D8DE3
:100F8200D54EA96C56F4EA657AAE08BA78252E1CBD
:100F9200A6B4C6E8DD741F4BBD8B8A703EB56648A9
:100FA20003F60E613557B986C11D9EE1F8981169A5
:100FB200D98E949B1E87E9CE5528DF8CA1890DBF5F
:100FC200E6426841992D0FB054BB163031323334AA
:0C0FD2003536373839414243444546006B
:00000001FF
